:020000040800F2
:10000000C00D0020A90100081D2B00086F27000863
:100010009D2A000873130008E9330008000000005F
:10002000000000000000000000000000E92E0008B1
:10003000D113000800000000492E00081F2F0008FF
:10004000C3010008C3010008C3010008C301000880
:10005000C3010008C3010008C3010008C301000870
:10006000C3010008C3010008C3010008C301000860
:10007000C3010008C3010008C3010008C301000850
:10008000C3010008C3010008C3010008C301000840
:10009000C3010008C3010008C3010008C301000830
:1000A000C3010008C3010008C3010008C301000820
:1000B000C3010008C3010008C3010008C301000810
:1000C000C3010008C3010008C3010008C301000800
:1000D000C3010008D1330008C3010008DD33000864
:1000E000C3010008C3010008C301000800F002F8C2
:1000F00000F04AF80AA090E8000C82448344AAF178
:100100000107DA4501D100F03FF8AFF2090EBAE875
:100110000F0013F0010F18BFFB1A43F0010318473B
:100120000856000028560000103A24BF78C878C14D
:10013000FAD8520724BF30C830C144BF04680C60ED
:10014000704700000023002400250026103A28BF35
:1001500078C1FBD8520728BF30C148BF0B60704739
:10016000662903F02F86642900F052800020704732
:100170001FB500F0C1FB04000020002103F0E8FAE5
:10018000E0601FBD10B510BD00F0B6FC1146FFF7D2
:10019000EFFF03F0CBF900F0D4FC03B4FFF7F2FF5C
:1001A00003BC00F017FD00000948804709480047DC
:1001B000FEE7FEE7FEE7FEE7FEE7FEE7FEE7FEE717
:1001C000FEE7FEE704480549054A064B7047000074
:1001D0007B2F0008ED000008C0070020C00D0020A4
:1001E000C0090020C00900200FB41CB5074B06AAA7
:1001F0007B4469460090059800F065FB0020694645
:1002000000F074FB1CBC5DF814FB0000F906000054
:100210002DE9F0410646002410687529314616A5DF
:1002200010D0AFF30080002802DA404213A507E0A7
:1002300031688A0701D512A502E0490704D511A546
:10024000012401E0AFF3008000210A2206F1240717
:1002500009E0B0FBF2FCB0FBF2F302FB1C00303013
:1002600078541846491C0028F3D123462A463046C4
:10027000BDE8F04100F0B9B8000000002D0000001A
:100280002B000000200000002DE9F0474FF0000A8D
:1002900089460446C0F820A02046E1688847002827
:1002A00076D0252806D0D4E901219047206A401C49
:1002B0002062F1E7E168204600258847C4F81CA0C9
:1002C00006460027C4F818A02A2E09D0304603F0AD
:1002D000B0F838B304EB8708303EC8F8186019E06E
:1002E00059F8041B204604EB87029161E1688847B6
:1002F000012F064618D1E069002820DA25F02005F4
:100300001DE0D8F8180000EB800006EB4000303804
:10031000C8F818002046E1688847064603F089F8C7
:100320000028EED1012F0AD02E2E08D12046E168F8
:1003300088477F1C0646022F45F02005C4DBA069D4
:10034000002803DA404245F00105A061E80701D02A
:1003500025F01005B6B1A6F14100192802D82036C3
:1003600045F400654A463146204625604D46FFF774
:10037000F7FE58B1012806D0ED1D25F0070000F169
:10038000080989E704E005F1040985E730468AE7B2
:10039000206ABDE8F0874FF0000200B5134694468E
:1003A0009646203922BFA0E80C50A0E80C50B1F1CD
:1003B0002001BFF4F7AF090728BFA0E80C5048BFE1
:1003C0000CC05DF804EB890028BF40F8042B08BF7F
:1003D000704748BF20F8022B11F0804F18BF00F87B
:1003E000012B70477047704770472DE9F0470D4665
:1003F00099469246044600F124080168880604D50F
:10040000E06921F01001216000E00120A84201DD37
:10041000471B00E00027A1697A1902EB0900081ABE
:10042000A0612078C00602D42046AFF300800026E9
:1004300008E0D4E901211AF806009047206A401C20
:10044000761C20624E45F4DB2078C0060AD5204693
:10045000AFF3008006E0D4E9012130209047206A04
:10046000401C2062381EA7F10107F4DC07E0D4E944
:10047000012118F805009047206A401C2062281EC0
:10048000A5F10105F3DC2046AFF3008020780006DB
:1004900002D50220BDE8F0870120FBE770472DE977
:1004A000FF4F0C461E464FF0FF378BB0D2E90001DC
:1004B000DDF860800A908A46C1F30A5505B93D46C9
:1004C000002108464FF00000BAF1000F00F4400090
:1004D00005DA00EB80004FF4400101EA50004FEADA
:1004E0009059B9F1010F00DDB9460A9850EA4A0067
:1004F0000ED044F61050A5F2FF3545432F14B8F145
:10050000000F1ED07542291E1EDDC9F100021CE03D
:10051000B8F1010F4FF0000001D0302103E0F243A9
:1005200005E02154401CB042FBDB30460022002194
:1005300021540B99C1F80880C1E900200FB0BDE833
:10054000F08FBD1B6D1CDEE74A4600DA694206A843
:1005500000F05CFA06AB93E8070003AB83E8070002
:1005600050460A9900F03DFB8DE80700A0F50050C9
:100570001F3800900398002D0ADD42F21F014A4601
:100580000844002303A90390684600F0A6FD09E093
:10059000A0F500504A461F38002303A9039068467F
:1005A00000F0B0FD8DE807000004000C03D04FF010
:1005B000FF30410800E01046B8F1000F03D00022E0
:1005C000009215461EE0751E05D400F099F93032F0
:1005D00062556D1EF9D5B3460122084302D00022B0
:1005E0007F1C04E02078302801D100227F1E002AE1
:1005F000099784D01DE0112D07DA00F081F930321F
:1006000062556D1C50EA0102F5D1084302D00098F2
:10061000C8B10EE00021681E05E0235C625C6354F3
:100620002254401E491C8142F7DBAB46A81B401EEA
:100630000990002004F80B000B98099AC0F8088074
:10064000C0E9002B7AE711264FF0000857E72DE9A3
:10065000F04F88460446D21D22F0070191B0D1E93F
:100660000001CDE90A0102F0C0FE02460B98C00F5E
:1006700001D02D2007E02068810701D52B2002E062
:10068000202101EAC000032A099001D0072A05DBD6
:1006900003464146204600F079F90BE120788006B8
:1006A00001D5E06900E00620B8F1650F814606D06B
:1006B000B8F1660F18D0B8F1670F70D131E00020A3
:1006C000B9F1110F009001DB112301E009F10103E1
:1006D0000AAA01A90CA8FFF7E2FEDDE90C700026CA
:1006E00009F10105834647E001204B4600904FF099
:1006F00000470AAA01A90CA8FFF7D1FEDDE90DB059
:100700000C995D46002610B909F101000D18B9EBEE
:10071000050003D4C0F1FF3609F10105A5EB09007E
:100720002BE0B9F1010F01DA4FF001090020B9F116
:10073000110F0090484601DD112300E003460AAA8C
:1007400001A90CA8FFF7ABFEDDE90C704D460026B1
:100750008346207800070AD4AB4500DA5D4601A83D
:10076000012D04DD411911F8011C302907D04F4536
:1007700002DA17F1040F04DA012082460FE06D1E41
:10078000EEE7002F02DCED1B3E4403E0781CA8429C
:1007900000DD7D1CB81B00F1010A4FF000472078F6
:1007A000000703D4AA4501DB4FF0FF3A0021B7F15F
:1007B000004F0DF143088DF8431024D002202B2365
:1007C000002F01DA7F422D230A21021EA0F1010031
:1007D00000DC5FB197FBF1FC97FBF1F201FB1C7CA5
:1007E00017460CF1300C08F801CDEEE7A8F1010036
:1007F00003702188090501D5452100E06521A0F19C
:10080000010800F8011C09980FA9A1EB0807FF1DBA
:1008100000B10120411901EBEA70A1693844081ABE
:10082000401EA0612078C00602D42046AFF30080AD
:10083000099828B1D4E901219047206A401C206220
:100840002078C00622D52046AFF300801EE0002E9F
:1008500004DBB34502DD01A8805D00E03020D4E96F
:1008600001219047206A401C2062761CAAF10100F9
:100870005FEA000A0AD100F03FF8C0680168405CF6
:10088000D4E901219047206A401C2062281EA5F16E
:100890000105DCDC07E0D4E9012118F8010B9047E1
:1008A000206A401C2062381EA7F10107F3DC2046B5
:1008B000AFF30080032011B041E6000001694A1C3B
:1008C00002610878704700B58FB0CDE90131002191
:1008D000059105497944CDE9031011466846FFF7B3
:1008E000D3FC0FB000BD0000E5FFFFFF0A6802F86F
:1008F000010B0A6070470000004870478007002025
:1009000030B5B0F10A024FEA900E71F100034EEAE1
:10091000817EB0EB0E0061EB91014FEA101E4EEAB2
:10092000017E10EB0E0041EB11114FEA102E4EEA42
:10093000016E10EB0E0041EB11214FEA104E4EEA12
:10094000014E10EB0E0041EB1141401841F1000146
:100950004FEAD00040EA41704FEAD10110EB800528
:100960004FEA810444EA907444EB01046D1944EBAE
:100970000404521BA3414FF0000348BF0A3200D5C4
:1009800030BD401C41F1000130BD00002DE9F041B7
:100990001F46044603260168072A01F4006004DBB1
:1009A00008B116A505E016A503E008B115A500E0FD
:1009B00015A521F010002060A069C01EA0610FB134
:1009C000401EA0612046AFF300804FB1D4E9012161
:1009D00038469047206A401C2062C01C206206E016
:1009E000206AFAE7D4E9012115F8010B9047761E39
:1009F000F8D22046AFF30080BDE8F0814E414E00B2
:100A00006E616E00494E4600696E66002DE9F04742
:100A1000814616468AB0354878440DC88DE80D00E9
:100A200032487844801C03AC0DC884E80D0041F6C0
:100A30009B300844372190FBF1F290FBF1F5A5F1D2
:100A4000800501FB12041B3C02D56442012000E03A
:100A50000020DFF898A080460027FA44AAF1BE0AD9
:100A60000EE0E0070AD03246684607EB4701012353
:100A70000AEB810100F046FB8DE8070064107F1C43
:100A8000002CEED1194F7F44AE3F19E0E80715D096
:100A900007EB04100DF1180A90E80E008AE80E002A
:100AA000C068F04201D1981908903246012306A986
:100AB00003A800F027FB03AB83E807006D10641C5C
:100AC000002DE3D14FF0010332466946B8F1000F23
:100AD00003A802D000F001FB01E000F013FBC9E91C
:100AE0000001C9F808200AB0BDE8F087F44C000006
:100AF00000487047600700207546FFF7F9FFAE46D3
:100B000005006946534620F00700854618B020B519
:100B1000FFF758FBBDE820404FF000064FF00007FC
:100B20004FF000084FF0000B21F00701AC46ACE895
:100B3000C009ACE8C009ACE8C009ACE8C0098D4602
:100B4000704710B50446AFF300802046BDE8104062
:100B5000FFF723BB4FF0013C50F8042B51F8043B46
:100B60009A4221D1A2EB0C03934313EACC1317D181
:100B700050F8042B51F8043B9A4215D1A2EB0C0318
:100B8000934313EACC130BD150F8042B51F8043BD8
:100B90009A4209D1A2EB0C03934313EACC13DBD0A6
:100BA0004FF00000704700BFD01A01BAB1FA81F1CE
:100BB00001F0180122FA01F0CB40C1F12001DBB2B3
:100BC000C0B2C01A2CFA01F3D11A914311EAC31131
:100BD000E6D1704701491820ABBEFEE726000200AF
:100BE00070475FEA400C08BF91F0000F4FEA8C237A
:100BF0004FEAC12243EA51514FEA1C5018BF00F599
:100C0000F0404FEA300018BF41F000415FEA6C5CF1
:100C100000F02980BCF1FF3F08BF40F080407047E2
:100C2000130C06BF12044FF0100C4FF0000C130E03
:100C300004BF12020CF1080C130F04BF12010CF1D7
:100C4000040C930F04BF92000CF1020CD30F04BFED
:100C500052000CF1010C11464FF00002A0F11F00F0
:100C6000A0EB0C00704711F0004F08BF704731F047
:100C700000413FF4D5AF0B0C06BF09044FF0100C38
:100C80004FF0000C0B0E04BF09020CF1080C0B0F07
:100C900004BF09010CF1040C8B0F04BF89000CF197
:100CA000020CCB0F04BF49000CF1010CCCF1200366
:100CB000A0EB0C0022FA03F302FA0CF241EA030162
:100CC00000F10100704720F07F4C80EA030023F020
:100CD0007F47ACEB070303F57C5300F0004003F1C2
:100CE000FF032DE980494FEA154B09B44FEA14433D
:100CF00025EA0B4E24EA03480FF2042606EB1327DD
:100D000049083E785FEA320203FB0667C7F5000731
:100D100007FB06F64FEA54374FEAD64606F10206BD
:100D200007FB066CCCF1005C4FEA1C472CEA074C31
:100D300007FB06F40CFB06F504EB15464FEA961686
:100D400034BF00204FF000404FEAD13706FB07FCCC
:100D50004FEA1C4C0CFB0BF7D21B03FB0CF761EBAF
:100D600007010CFB0EF7B0EB074072EB17420CFBD0
:100D700008F734BFA2EB0742B2EB074261EB174121
:100D80004FEA0C444FEA910706FB07FC4FEA1C4C64
:100D90000CFB0BF7B0EBC74072EB573203FB0CF7C1
:100DA00034BFA2EBC742B2EBC74261EB57310CFB39
:100DB0000EF7B0EBC70072EB57720CFB08F734BFAD
:100DC000A2EBC702B2EBC70261EB5771039F4FEA78
:100DD000816141EA921104EBCC044FEAD1374FEA2A
:100DE000826206FB07FC42EA90124FEA80604FEAFB
:100DF0001C4C0CFB0BF7D21B03FB0CF761EB070140
:100E00000CFB0EF7B0EB074072EB17420CFB08F738
:100E100034BFA2EB0742B2EB074261EB17414FEA46
:100E20008C554FEA910704EB9C2406FB07FC4FEA24
:100E30001C4C0CFB0BF7B0EBC74072EB573203FBBB
:100E40000CF734BFA2EBC742B2EBC74261EB57319C
:100E50000CFB0EF7B0EBC70072EB57720CFB08F7F8
:100E600034BFA2EBC702B2EBC70261EB577115EBBF
:100E70004C254FEA816141EA92114FEA82624FEAC2
:100E8000D13742EA901206FB07FC44F100044FEA16
:100E900080604FEA1C4C0CFB0BF7D21B03FB0CF7DA
:100EA00061EB07010CFB0EF7B0EB074072EB17424A
:100EB0000CFB08F734BFA2EB0742B2EB074261EB31
:100EC000174115EB1C154FEA813141EA92414FEA77
:100ED000823242EA90424FEA80304FEA0C7644F187
:100EE000000448EA03434EEA0B484FF0000EB2EB11
:100EF000080C71EB030724BF624639464EEB0E0E19
:100F00004FF0000B0018524149414BEB0B0BB2EB79
:100F1000080C71EB03077BF1000B24BF62463946D6
:100F20004EEB0E0E4FF0000B0018524149414BEBB7
:100F30000B0BB2EB080C71EB03077BF1000B24BF2A
:100F4000624639464EEB0E0E51EA020718BF46F0D4
:100F5000010616EB0E7655F1000254F1000103D59F
:100F6000BDE88901BDE80088BDE88901BDE8004809
:100F7000B619524141EB0101A3F101037047808092
:100F80007F7E7D7C7B7A79787776767574737271E3
:100F900071706F6E6E6D6C6C6B6A6A69686867669B
:100FA00066656464636362616160605F5F5E5E5D2D
:100FB0005D5C5C5B5B5A5A595958585757565655A1
:100FC00055555454535352525251515050504F4F03
:100FD0004F4E4E4D4D4D4C4C4C4B4B4B4A4A4A4953
:100FE0004949484848474747474646464545454496
:100FF0004444444343434342424242414141002B23
:101000009C4630D477002BD01CB54FEA370703B489
:101010004FF010004FF01001BAF1000F06D0BCF1F4
:10102000000FDCBF40F0080040F008014FF0000066
:101030000FBCBDE810400BF1010BBBF1010F08BF65
:101040005FEA170722BF12F1010211F101014FF00F
:10105000004143F1000300F0004043EA0000704704
:10106000F9D35708D0E746EA064613F1400F4FEA96
:1010700016461FDD13F1200FDFBF16430A4600217D
:1010800020335B42BED0C3F1200746EA064602FA8F
:1010900007F74FEA164646EA0706C3F1200722FA89
:1010A00003F201FA07F721FA03F14FF0000342EAD5
:1010B0000702A7E746EA020646EA06464FEA164650
:1010C00046EA0106BCBF46EA0646360C4FF000036E
:1010D0004FF000024FF0000194E72DE9804C9A4652
:1010E000934670B491E8380007C831EA400C48BF15
:1010F00034EA430C03D5FFF7E6FDFFF780FFF0BCB1
:10110000BDE8008C2DE9804C9A46934670B491E876
:10111000380007C810F0804F08BF13F0804F03D18C
:1011200000F005F8FFF76BFFF0BCBDE8008C20F085
:101130007F4780EA030023F07F4C07EB0C03A3F505
:101140007C5300F00040A3F1FE0392F0000F00F08A
:10115000B38095F0000F00F077802DE901494FEA48
:1011600011404FEA144621EA004800FB06FC24EA3D
:10117000064708FB06F607FB08F800FB07F718EB25
:1011800006484CEB164C4FEA124B18EB07484FEA57
:1011900015464CEB174022EA0B4E0BFB06FC25EAEA
:1011A00006470EFB06F607FB0EFE0BFB07F71EEBD2
:1011B000064E4CEB164C4FF000061EEB074E4CEB68
:1011C000174B18EB0B0840F1000018EB0E0B58EB17
:1011D000000840F100008F1A4FF000013CBFC943E6
:1011E000661B14BFB5EB040C00213CBFC943F61BC2
:1011F0004FEA17444EEA8E0E27EA04454FEA1C4791
:1012000004FB07622CEA074C05FB07F70CFB05F60D
:1012100004FB0CFC16EB074642EB174216EB0C46A0
:1012200042EB1C421BEB060658EB0202414146EA28
:101230009E0601D5BDE80189B619524141EB010175
:10124000A3F10103BDE801894FEA14454FEA1147B4
:1012500024EA054621EA074C05FB07F406FB07F7DD
:101260000CFB06F105FB0CFC11EB074144EB1744AA
:101270004FEA124711EB0C4144EB1C4422EA074CA5
:1012800005FB07F206FB07F70CFB06F605FB0CFC5B
:1012900016EB074642EB174216EB0C4642EB1C4599
:1012A0006A1854F1000148BF7047B619524141EB2A
:1012B0000101A3F10103704795F0000F37D04FEA09
:1012C00011424FEA144721EA024624EA074C02FB86
:1012D00007F106FB07F70CFB06F402FB0CFC14EB12
:1012E000074441EB17414FEA154714EB0C4441EB1F
:1012F0001C4125EA074C02FB07F506FB07F70CFB30
:1013000006F602FB0CFC16EB074645EB174516EB01
:101310000C4645EB1C42121951F1000148BF7047C1
:10132000B619524141EB0101A3F1010370474FEAA5
:1013300014454FEA114724EA054621EA074C05FB0C
:1013400007F106FB07F70CFB06F24FF0000605FB62
:101350000CFC12EB074241EB174112EB0C4251EB34
:101360001C4148BF7047921841EB0101A3F10103F2
:101370007047FEE7154A10B513495378C8545B1CF3
:10138000D8B250700C780023552C1AD10B2819D3E1
:101390004878512804D0522808D0532811D10BE0A6
:1013A00051F8020F1064486850640AE051F8020FC7
:1013B00010654868506504E051F8020F9064486871
:1013C000D064537010BD0000E8040020000000202D
:1013D0007047000072B6044C4021204600F07DF9B1
:1013E000C82000F073F8F7E70008014010B590F846
:1013F00021100022022905D00421816380F82020D9
:10140000012010BD01680B6823F00E030B6001681A
:101410000B6823F001030B6090F84030C46B01218E
:1014200001FA03F3636080F8211080F82020104651
:1014300010BD000010B590F821100024022903D03F
:101440000421816301243DE001680A6822F00E0254
:101450000A6001680A6822F001020A601A4A0168FB
:10146000914201D1012121E0174A1432914201D168
:1014700010211BE0144A2832914201D1891515E050
:10148000114A3C32914201D189140FE00E4A503288
:10149000914202D14FF4803108E00B4A643291420C
:1014A00002D14FF4801101E04FF08071064A083AF2
:1014B0005160012180F82110002180F82010416B3B
:1014C00001B18847204610BD0800024070B50446AF
:1014D00000F010F90546601C02D00448007804446E
:1014E00000F008F9401BA042FAD370BD580000205C
:1014F0002DE9F84FDFF8B8910024A9F1040B234639
:101500000F2709F1040AABF1040EC9E00125A5403B
:101510002A40AA427DD1674ED1F804C0ACEB060840
:10152000B44532D014DCBCF1030F3AD009DCBCF175
:10153000000F2AD0BCF1010F1CD0BCF1020F31D139
:101540001DE0BCF1110F17D0BCF1120F2AD119E028
:10155000B8F5881F19D006DCB8F5803F15D0B8F56E
:10156000801F1FD111E0B8F5001F0ED0B8F5041F81
:1015700018D10AE0CB6815E0CB681B1D12E0CB68E0
:1015800008330FE0CB680C330CE08B682BB1012BD8
:101590004FF0080303D0456104E0042302E0056135
:1015A00000E00023FF2A01D8064601E000F104060E
:1015B0004FEA840501D9A5F12005D6F8008007FA85
:1015C00005FC28EA0C0803FA05F548EA0508C6F800
:1015D00000804D68ED0062D5374DAE6946F00106DA
:1015E000AE61AD6924F0030605F001050095334DA9
:1015F00006EB050CDCF80850A607360F07FA06F8CC
:1016000025EA0805DFF8B880404503D14FF000080F
:1016100017E044E0DFF8AC80404502D14FF001080C
:101620000FE0DFF8A480404502D14FF0020808E047
:10163000DFF89880404502D14FF0030801E04FF0F9
:10164000040808FA06F848EA0508CCF808804D684E
:10165000D9F80060ED024D4601D5164300E09643EF
:101660002E604D68DAF80060AD02554601D516438C
:1016700000E096432E604D68DBF80060AD035D46E8
:1016800001D5164300E096432E604D68DEF80060F9
:10169000ED03754601D5164300E096432E60641CA9
:1016A0000D682A46E5407FF431AFBDE8F88F0000B1
:1016B0000804014000001110001002400000014029
:1016C00000080140000C01400010014000140140DE
:1016D0008068084000D001207047C26821EA0203F8
:1016E0000A4043EA0241016170470AB10161704753
:1016F0000904FBE70148806870470000580000209B
:1017000002488168027811448160704758000020C7
:10171000074810B5016841F010010160032000F096
:1017200075F80F2000F006F800F024F8002010BD36
:101730000020024070B50D4D04464FF47A712878B0
:10174000B1FBF0F00A490968B1FBF0F000F0E2FAF1
:1017500048B9102C07D200222146501E00F036F85E
:1017600000206C6070BD012070BD0000580000209A
:10177000640000200C4808B5816941F001018161D5
:10178000816901F001010091C16941F08051C1619D
:10179000C06900F0805000900448416821F0E06189
:1017A00041F00071416008BD00100240000001409E
:1017B000002809DB00F01F02012191404009800050
:1017C00000F1E020C0F8001170470000F0B40E4BAB
:1017D0001B680C46C3F30223C3F10705042D00D98F
:1017E0000425191D072901D2002300E0DB1E012674
:1017F00006FA05F1491E214099409E40761E16408A
:101800003143F0BC01F005BE0CED00E0064900F0EC
:10181000070208684FF6FF03184040EA0220034A17
:1018200010430860704700000CED00E00000FA056E
:101830002DE9F0470F46050061D0434E306800F0B7
:101840000700B84209D2306820F007003843306002
:10185000306800F00700B84251D128683B4C81073E
:1018600012D5400703D5606840F4E06060602878D6
:10187000000703D5606840F4605060606068A96844
:1018800020F0F000084360602878C00728D068681E
:10189000012810D02168022810D0890700292EDAEB
:1018A000616821F0030101436160FFF723FF804677
:1018B00041F288390DE021688903EFE78901EDE7FE
:1018C000FFF718FFA0EB0801494502D90320BDE846
:1018D000F0876068696800F00C00B0EB810FEFD111
:1018E000306800F00700B8420BD9306820F00700DC
:1018F00038433060306800F00700B84201D0012062
:10190000E5E72878400705D56068E96820F4E060DD
:10191000084360602878000706D56068296920F4CC
:10192000605040EAC100606000F03EF86168084A1B
:10193000C1F30311515CC8400649086006480068BD
:10194000FFF7F8FE0020C2E700200240001002402E
:101950007A560008640000205C00002001480068FE
:101960007047000064000020044805490068496889
:10197000044AC1F30221515CC84070476400002052
:10198000001002408A56000804480549006849686A
:10199000044AC1F3C221515CC84070476400002072
:1019A000001002408A5600080E4A51680E4801F0A5
:1019B0000C03042B11D0082B0FD10C48C1F3834327
:1019C000C903C05C0AD55168084AC1F34041921E60
:1019D000515C054A5043B0FBF1F07047044948435D
:1019E000704700000010024000127A006A5600089A
:1019F00000093D002DE9F84F040070D02078C04D5B
:101A0000C00749D06868C0F38100012807D0686822
:101A1000C0F38100022809D16868C00306D5286890
:101A2000800339D560680028E7D035E06068B0F5FC
:101A3000803F0BD010B1B0F5A02F11D0286820F452
:101A400080302860286820F4802002E0286840F474
:101A500080302860606890B1FFF74CFE06460AE0CF
:101A6000286840F480202860F0E700BFFFF742FEBE
:101A7000801B642873D828688003F7D50CE0FFF733
:101A800039FE064605E000BFFFF734FE801B6428E0
:101A9000F0D828688003F7D420789A4E80074FF05A
:101AA00001094FF0000839D5686810F00C0F07D015
:101AB0006868C0F38100022809D16868C00306D4B1
:101AC0002868800714D52069012808D110E0206912
:101AD000B0B1C6F80090FFF70DFE074605E00AE139
:101AE000FFF708FEC01B0228C4D828688007F7D576
:101AF0002868616920F0F80040EAC10028600DE024
:101B0000C6F80080FFF7F6FD074604E0FFF7F2FD98
:101B1000C01B022823D828688007F7D42078000744
:101B20002CD57948A169D9B1C0F80090FFF7E2FD42
:101B3000074604E0FFF7DEFDC01B02280FD8686AE5
:101B40008007F7D571484FF4FA510068B0FBF1F007
:101B5000009000BF0098411E0091FAD20EE080E094
:101B6000C0F80080FFF7C6FD074604E0FFF7C2FD9E
:101B7000C01B022875D8686A8007F7D42078400710
:101B800060D5E8690027C00008D4E86940F08050BB
:101B9000E861E869012700F0805000905C48016826
:101BA000C90513D40168834641F480710160FFF7D1
:101BB000A1FD824606E000BFFFF79CFDA0EB0A00F6
:101BC00064284ED8DBF80000C005F5D5E068012890
:101BD0000AD008B1052813D0286A20F00100286235
:101BE000286A20F0040002E0286A40F00100286220
:101BF000E06841F2883B98B1FFF77CFD82460BE03C
:101C0000286A40F004002862EEE700BFFFF772FD8B
:101C1000A0EB0A0159455AD8286A8007F6D50CE08E
:101C2000FFF768FD824605E0FFF764FDA0EB0A01BF
:101C300059454CD8286A8007F6D41FB1E86920F0CE
:101C40008050E861E06988B36968C1F381010229C5
:101C500044D00228C6F8608004D0FFF74BFD04464C
:101C600038E034E0FFF746FD074604E0FFF742FDA9
:101C7000C01B02282BD828688001F7D4206AB0F551
:101C8000803F05D16868A16820F40030084368608F
:101C9000D4E908010843696821F4741108436860B5
:101CA000C6F86090FFF726FD044606E025E000BF79
:101CB000FFF720FD001B022809D828688001F7D50E
:101CC0001BE000BFFFF716FD001B022802D903200E
:101CD000BDE8F88F28688001F4D40EE00128F7D021
:101CE0006868226A00F48031914204D1616A00F48C
:101CF0007010884201D00120EAE70020E8E70000E8
:101D00000010024000004242800442426400002071
:101D10000070004010B5401EB0F1807F01D301205B
:101D200010BD4FF0E02460610F21601701F071FBDE
:101D30000020A06107202061002010BD10B590F8A0
:101D40003C20012A22D0012280F83C20CA688C68FD
:101D500022F4407222434C6822F4806222430C68D1
:101D600022F4006222430C6922F4805222434C691F
:101D700022F400522243C969002322F480420A431C
:101D800001684A6480F83C30002010BD022010BD7C
:101D900070B590F83C20012A26D0012480F83C4000
:101DA000022280F83D2003685A689D6822F0700680
:101DB0000A6832435A600D4B02689A4208D0B2F169
:101DC000804F05D00A4B9A4202D00A4B9A4204D166
:101DD000496825F080031943916080F83D40002157
:101DE00080F83C10084670BD022070BD002C0140F8
:101DF000000400400008004010B5040003D094F82F
:101E00003D0010B107E0012010BD002084F83C0027
:101E1000204600F01FF8022084F83D00211D2068B4
:101E200001F0ACF8012084F8460084F83E0084F804
:101E30003F0084F8400084F8410084F8420084F8B0
:101E4000430084F8440084F8450084F83D000020F5
:101E500010BD000008B50C4A01680C48914207D13A
:101E6000816941F400618161806900F4006009E0EA
:101E7000B1F1804F07D1C16941F00101C161C06971
:101E800000F00100009008BD002C0140001002404D
:101E900090F83D10012901D001207047022180F8FF
:101EA0003D1000680B49884208D0B0F1804F05D042
:101EB0000949884202D00949884204D1816801F069
:101EC0000701062903D0016841F0010101600020EB
:101ED00070470000002C0140000400400008004052
:101EE00001680A6A41F211131A4207D10A6A9B106B
:101EF0001A4203D10A6822F001020A60012180F827
:101F00003D100020704770B5044690F83C00002555
:101F1000012817D0012684F83C60022084F83D0097
:101F20002068826822F0770222F47F42826008688B
:101F3000502838D00DDC20284FD005DC90B3102875
:101F400011D14AE0022070BD302846D040280AD185
:101F50003BE060282FD070280DD0B0F5805F03D013
:101F6000B0F5005F12D0012584F83D60002084F8B0
:101F70003C00284670BDCB68D1E90121206801F002
:101F800046F82068816841F0770109E0CB68D1E923
:101F90000121206801F03BF82068816841F480410C
:101FA0008160E1E719E0CA684968206801F0E4F857
:101FB0005021206806E0CA684968206801F0EDF801
:101FC0006021206801F02DF8CEE7CA6849682068D2
:101FD00001F0D2F840212068F4E72268014610465B
:101FE000F0E7000000B585B0002100910191029159
:101FF0000391154B0268154802219A420FD182695C
:1020000042F0040282618069039100F004000490B0
:102010004FF41060CDE9000169460D4810E00D4B0A
:102020009A420FD1826942F008028261806903916D
:1020300000F0080004900320CDE90001694606483D
:10204000FFF756FA05B000BD002C01400010024019
:102050000008014000040040000C014070B5044637
:1020600090F83C0000260D4601280FD0012084F88E
:102070003C006AB1042A1DD0082A2FD00C2A3FD078
:102080000126002084F83C00304670BD022070BD5F
:10209000206800F0CFFF2068816941F0080181616C
:1020A0002068816921F004018161206881692A69C1
:1020B000114311E0206800F0E5FF2068816941F4D8
:1020C000006181612068816921F4806181612068FB
:1020D00081692A6941EA02218161D2E7206800F022
:1020E000FDFF2068C16941F00801C1612068C16934
:1020F00021F00401C1612068C1692A69114311E01E
:10210000206801F017F82068C16941F40061C161DD
:102110002068C16921F48061C1612068C1692A69B0
:1021200041EA0221C161ACE710B5040003D094F884
:102130003D0010B107E0012010BD002084F83C00F4
:10214000204600F01FF8022084F83D00211D206881
:1021500000F014FF012084F8460084F83E0084F863
:102160003F0084F8400084F8410084F8420084F87D
:10217000430084F8440084F8450084F83D000020C2
:1021800010BD000008B500680649884208D106481D
:10219000C16941F00201C161C06900F00200009014
:1021A00008BD0000000400400010024010B50446C5
:1021B000022249B104290ED0082913D094F8410015
:1021C000012816D0012010BD94F83E000128F9D155
:1021D00084F83E200FE094F83F000128F2D184F803
:1021E0003F2008E094F840000128EBD184F840201B
:1021F00001E084F841200122206800F0FBFE0F4935
:102200002068884203D1426C42F400424264206854
:10221000884208D0B0F1804F05D00949884202D0E9
:102220000849884204D1816801F00701062903D0DA
:10223000016841F001010160002010BD002C014047
:10224000000400400008004070477047F8B501687E
:1022500004460868CA684B6910F00F0F4FF000057C
:1022600059D003F0010602F49077374365D0C107D7
:1022700005D0D10503D5616C41F0010161644107CE
:1022800005D5D90703D0616C41F002016164810773
:1022900005D5D90703D0616C41F0040161640107E1
:1022A00007D502F02001314303D0616C41F00801F1
:1022B0006164616C00293AD0800604D5900602D58D
:1022C000204600F0ABFF20684069616CC0F38010CD
:1022D000090700D460B3204600F079FF2068406908
:1022E000400621D52068143050E8001F21F040013D
:1022F00040E80012002AF5D1E06BA8B16D494163B6
:10230000E06BFFF797F8002811D0E06B416B01B04C
:10231000BDE8F040084783060FD593060DD520464B
:10232000BDE8F84000F07ABF2046FFF78EFFF8BD09
:102330002046FFF78AFF6564F8BD266B2023012E37
:102340007CD1C6067AD5D60678D50868486800904C
:1023500048694FF00206400640D5E16B08684068C6
:102360000004000CE8D0A28D8242E5D9E08588699E
:1023700020282DD020680C3050E8001F21F48071F7
:1023800040E80012002AF5D12068143050E8001F00
:1023900021F0010140E80012002AF5D12068143034
:1023A00050E8001F21F0400140E80012002AF5D15A
:1023B00084F84230256320680C3050E8001F21F07B
:1023C000100140E80012002AF5D1E06BFFF70EF88B
:1023D0006663A08DE18D401A81B22AE0A08DE18D67
:1023E000401A81B2E08D0028A6D00029A4D022682E
:1023F0000C3252E8000F20F4907042E80007002FE2
:10240000F5D12068143050E8002F22F0010240E896
:102410000027002FF5D184F84230256320680C3066
:1024200050E8002F22F0100240E80023002BF5D1E5
:1024300066632046FFF708FFF8BDFFE705062BD5CA
:10244000150629D594F841002128F5D1A068B0F5EA
:10245000805F01D12069B0B1206A411C21622168EE
:1024600000784860E08C401E0004000CE084E3D15A
:102470002068C16821F08001C1602068C16841F016
:102480004001C160D8E7206A0088C0F308004860B6
:10249000206A801C2062E5E74006CDD55006CBD5EA
:1024A000CA68204622F04002CA6084F8413000F039
:1024B0005DF9C1E7BF31000870B5040004D094F89D
:1024C0004100002510B106E0012070BD84F84050A5
:1024D000204600F023F8242084F841002068C168D9
:1024E00021F40051C160204600F0FAFE2068016925
:1024F00021F4904101612068416921F02A01416184
:102500002068C16841F40051C1606564202084F8EE
:10251000410084F842006563002070BD70B586B04C
:102520000024009401940294039403682E482D4ED5
:10253000022103220515B34226D1836943F4804367
:102540008361836903F480430493836943F0040344
:1025500083618069254E00F0040004900802CDE9F3
:102560000001039269463046FEF7C2FFCDE90054F0
:10257000694630460294FEF7BBFF00221146252033
:10258000FFF724F9252028E0194EB34227D1C3696B
:1025900043F48023C361C36903F4802304938369F4
:1025A00043F0080383618069CDE9005100F0080021
:1025B000CDE903200F4D69462846FEF799FFE81440
:1025C000CDE90004694628460294FEF791FF0022F7
:1025D00011462720FFF7FAF82720FFF7E9F806B0A1
:1025E00070BD0000003801400010024000080140AA
:1025F00000480040000C014090F84230202B01D0F0
:102600000220704721B11AB10023036300F0C4BE59
:102610000120704770B50646FFF76CF8414CA0608A
:1026200000202070404A316891426BD1E578A57056
:10263000303D092D60D83D4B0A2D43D2DFE805F02F
:10264000050F171C21262B34363A01206071002219
:1026500040211846FFF749F80021084630E0607134
:10266000012240211846FFF740F8C8210CE06079AC
:1026700040BB6FF0C70022E0607918BBC821322050
:102680001EE06079F0B93221C82019E06079C8B93C
:102690004FF4FA7203E06079A0B94FF47A7208211E
:1026A000234800F022FC0DE00022F8E7607948B9E9
:1026B000642002E0607928B9FA206061A0610146D7
:1026C00000F0EEF900F02CFA2A461AA11C48FDF79A
:1026D0008BFD002110231A4A084600F055FB607953
:1026E0004FF0100308B117A200E01AA20221002047
:1026F00000F04AFB00F0CEFA0A490122C91C184832
:10270000FFF77AFF1749306888420AD12079FEF72F
:1027100031FEBDE8704003490122091D1248FFF750
:102720006BBF70BD00000020003801400008014070
:1027300088060020436F6D6D616E643A2025640049
:10274000E20500205374617475733A2053746F70FE
:10275000000000005374617475733A2052756E0066
:10276000D006002000480040180700207047FEE710
:102770002DE9F04385B00025384800950195029574
:102780000395816941F010018161816901F01001B7
:102790000491816941F020018161816901F020018A
:1027A0000491816941F004018161816901F00401B2
:1027B0000491816941F0080181618069DFF8A0809E
:1027C00000F008000490002249F208014046FEF79C
:1027D0008CFF012240214046FEF787FFDFF88490FE
:1027E00000224FF238014846FEF77FFF0420CDE972
:1027F0000005694640460295FEF77AFE082001244E
:1028000002278DE8B10069464046FEF771FE402080
:1028100003268DE8710069464046FEF769FE4FF4D5
:1028200070408DE8B10069464846FEF761FE4FF4FE
:102830001040CDE90004CDE9024669464046FEF766
:1028400057FE3820CDE90004CDE9024669464846E6
:10285000FEF74EFE05B0BDE8F08300000010024018
:1028600000080140000C014010B596B000240F9400
:1028700010941194129413941C2168461494FDF73B
:102880008AFD202107A8FDF786FD2D482B49016010
:102890004721C0E9011440F2E731C0E90314802167
:1028A000C0E90541FFF7A8FA08B1FEF793FD4FF420
:1028B00080500F900FA92248FFF725FB08B1FEF7C3
:1028C00089FD1F48FFF730FC08B1FEF783FD139424
:1028D00013A91B481494FFF75BFA08B1FEF77AFDC1
:1028E0006020CDE90004029403940494059400222E
:1028F000694613480694FFF7B1FB08B1FEF76AFD7D
:102900000C2269460E48FFF7A9FB08B1FEF762FDED
:102910000794089409944FF400500A94CDE90B40B1
:1029200007A907480E94FFF709FA08B1FEF752FD10
:102930000348FFF757FB16B010BD0000002C014004
:10294000F805002010B586B00024164800940194C4
:102950000294039404944FF0804105940160472150
:10296000C0E901144FF6FF71C0E903148461FFF759
:1029700043FA08B1FEF72EFD4FF4805000906946EF
:102980000848FFF7C0FA08B1FEF724FD049404A933
:1029900004480594FFF7FCF9002801D0FEF71AFD62
:1029A00006B010BD4006002010B58AB00024079480
:1029B0001C2168460894FDF7EEFC1B48194901608C
:1029C0004721C0E9011440F2E731C0E90314802136
:1029D0008161FFF7A9FB08B1FEF7FCFC079407A98A
:1029E00011480894FFF7D4F908B1FEF7F3FC602012
:1029F000CDE900040294082269460B480494FFF7CD
:102A00002DFB08B1FEF7E6FC0C2269460648FFF7ED
:102A100025FB08B1FEF7DEFC0348FFF7E3FA0AB036
:102A200010BD000000040040880600200C4810B5CE
:102A30000A4901604FF4E1314160002181600C22BC
:102A4000C160C0E904128161C161FFF735FD002852
:102A500003D0BDE81040FEF7BDBC10BD00380140FA
:102A6000D00600200C4810B50A4901604FF4E1314E
:102A70004160002181600C22C160C0E904128161C3
:102A8000C161FFF719FD002803D0BDE81040FEF733
:102A9000A1BC10BD0048004018070020FEE7000060
:102AA0002DE9F0410C461B4E05004FF400514FF448
:102AB000805705D401223046FEF717FE002204E0BD
:102AC00000223046FEF711FE012239463046FEF75D
:102AD0000CFE4FF480414F00002C05DB01223046F4
:102AE000FEF703FE002204E000223046FEF7FDFD63
:102AF000012239463046FEF7F8FD002C00DA644228
:102B0000054801680C64002D00DA6D4200684563D9
:102B1000BDE8F081000C0140F8050020FEE7000050
:102B200030B40021084B0A465FF0000003EBC004FC
:102B3000401CC0B262548028F8D3491CC9B208298D
:102B4000F2D330BC00F0A6B868000020CA0801F03B
:102B5000070301219940044B03EBC003985C61EA31
:102B60000000C0439854704768000020CA0801F074
:102B7000070301219940034B03EBC000835C0B4327
:102B8000835470476800002010B5414C0022082192
:102B90002046FEF7AAFDC820FEF798FC0122082176
:102BA0002046FEF7A2FD0021AE2000F00DF9002125
:102BB000084600F009F90021102000F005F9002175
:102BC000402000F001F90021812000F0FDF80021F3
:102BD000CF2000F0F9F80021A12000F0F5F8002145
:102BE000C82000F0F1F80021A62000F0EDF8002147
:102BF000A82000F0E9F800213F2000F0E5F80021CE
:102C0000D32000F0E1F80021084600F0DDF80021B3
:102C1000D52000F0D9F80021802000F0D5F800215F
:102C2000D92000F0D1F80021F12000F0CDF80021EA
:102C3000DA2000F0C9F80021122000F0C5F80021C8
:102C4000DB2000F0C1F80021402000F0BDF8002199
:102C5000202000F0B9F80021022000F0B5F8002192
:102C60008D2000F0B1F80021142000F0ADF8002113
:102C7000A42000F0A9F80021A62000F0A5F800216A
:102C8000AF2000F0A1F8BDE81040FFF749BF0000F9
:102C9000000C014070B5114E002400BF04F1B000DB
:102CA000C0B2002100F090F80021084600F08CF836
:102CB0000021102000F088F85FF0000506EBC50049
:102CC0000121005D00F080F86D1CEDB2802DF5D380
:102CD000641CE4B2082CE1D370BD00006800002041
:102CE0002DE9FF4F1D460C468946580700D00120AC
:102CF00000EBD50069084843203A00F0FF0A02F0D3
:102D0000FF0B002635E00C2D12D0102D14D0182DFD
:102D100031D11A490BEBCB0001EB80004FF00008DA
:102D2000875D2146380600980AD5FFF71FFF09E0A6
:102D30000BEB4B001249EFE7124901EB0B10EDE7EB
:102D4000FFF704FF7806641C070EE4B2A4EB090049
:102D5000A84205D100984C46401CC0B2009006E045
:102D600008F1010000F0FF08B8F1080FD9D3761C74
:102D7000F6B25645C7D3BDE8FF8F00000C490008E6
:102D8000A83E00081C4300082DE9F0411E461546E8
:102D900088460446C3F180070FE03346414620468B
:102DA000FFF79EFF04EB5600C4B2A74204DA08F115
:102DB0000200002400F0FF086D1C2A78A2F1200018
:102DC0005E28EAD9BDE8F0812DE9F0471C4E0546A2
:102DD0004FF4004909B1012200E000224946304683
:102DE000FEF783FC4FF48058002241463046FEF740
:102DF0007CFC144F0024002220213846FEF775FC8D
:102E0000280601D5012200E0002210213846FEF7F5
:102E10006CFC012220213846FEF767FC6806641C22
:102E2000050EE4B2082CE6D3012241463046FEF7F7
:102E30005CFC49463046BDE8F0470122FEF755BC30
:102E400000080140000C0140704700002DE9F041EE
:102E500016461D460C4607460122FEF746FC0A2090
:102E600000F032F8002221463846FEF73EFC2946A3
:102E70003046FEF72DFC0028F9D01148FFF708F87E
:102E80000F4C00202168486229463046FEF720FC9E
:102E90000128F9D00A48FFF723F82068406A00F0BB
:102EA000F7FD0022074B00F09BFC00F067FC044696
:102EB00042F2107000F008F82046BDE8F0810000F2
:102EC0004006002000004D4010B50446FEF746FDC8
:102ED0000449B0FBF1F1614300E0491E0029FCD137
:102EE00010BD000000093D00704770B588B00C4669
:102EF000064615461C216846FDF74DFA60200090F5
:102F00000021CDE901510491224669463046FFF780
:102F1000A5F821463046FFF749F908B070BDFEF725
:102F2000EFBB30B58FB028216846FDF734FA142185
:102F30000AA8FDF730FA01210804CDE900100024A9
:102F4000029402250491CDE907504FF4E010099056
:102F50006846FEF74FFD60B90F20CDE90A0568020B
:102F6000CDE90C4002210AA80E94FEF761FC00286E
:102F700001D0FEF72FFA0FB030BD7047F0B50268F0
:102F8000194B1A4C1A4D4FF08047984205D0B84261
:102F900003D0A04201D0A84203D122F070064A68B3
:102FA0003243984205D0B84203D0A04201D0A84293
:102FB00003D122F44074CA6822434C6922F0800293
:102FC000224302608A68C2620A688262984201D122
:102FD00009690163012141610169C90703D00169E0
:102FE00021F001010161F0BD002C0140000400400E
:102FF0000008004010B501F01F030121046A994048
:103000008C430462016A9A401143016210BD10B5FD
:10301000846842EA032224F47F440A432243826004
:1030200010BD826822F070020A4342F007018160FD
:103030007047000030B5036A026A22F001020262A2
:103040004268846924F073050C682C4323F0020560
:103050008B682B430A4DA8420BD123F00805CB689F
:1030600022F440722B434D6923F0040315438A690F
:103070002A434260846149684163036230BD0000B5
:10308000002C014030B5026A036A23F0100303628A
:10309000436884690D6824F4E64444EA05248D6895
:1030A00022F0200242EA05120B4DA8420ED1CD6853
:1030B00022F0800242EA05124D6923F4406343EA9C
:1030C00085038D6922F0400243EA850343608461F1
:1030D00049688163026230BD002C014030B5036A4B
:1030E000026A22F4807202624268C46923F40073A7
:1030F00024F073050C682C438D6843EA05230C4DBE
:10310000A8420ED1CD6823F4006343EA05234D693C
:1031100022F4405242EA05128D6923F4806342EAA8
:1031200005124260C4614968C163036230BD00009A
:10313000002C014030B5046A026A22F48052026217
:103140004268C3690D6823F4E64343EA05238D68AA
:1031500024F4005444EA0534064DA84204D14D69D4
:1031600022F4804242EA85124260C36149680164E8
:10317000046230BD002C014010B5036A046A24F0DB
:1031800001040462846924F0F00444EA021423F088
:103190000A020A438461026210BD10B5036A046A20
:1031A00024F010040462846923F0A00324F4704422
:1031B00044EA023243EA01118261016210BD10B596
:1031C000406A0021C185C184FFF73FF810BD016846
:1031D0000C3151E8002F22F4907241E80023002BBB
:1031E000F5D10168143151E8002F22F0010241E8C5
:1031F0000023002BF5D1016B012909D101680C31A5
:1032000051E8002F22F0100241E80023002BF5D1F5
:10321000202180F8421000210163704708B590F822
:103220004210222901D0022008BD82684FF4805349
:103230009A4201D1016921B1816A9A421BD04AB1F7
:103240000AE00268816A5268C2F308020A80816A51
:10325000891C08E0026972B10268526802F07F02BC
:103260000A70816A491C8162C18D491E0904090CDA
:10327000C18503D01BE002685268F1E70168CA68A3
:1032800022F02002CA600168CA6822F48072CA6013
:1032900001684A6922F001024A61202180F8421047
:1032A00000214163026B012A03D0FFF7B3F900202C
:1032B00008BD016301680C3151E8002F22F01002B3
:1032C00041E80023002BF5D101680A68D20602D537
:1032D0000A6849680091818DFEF7B6FFE7E70000B4
:1032E00070B5044600680169E26821F44051114359
:1032F00001612169A0680843616908432168CA68BF
:1033000041F20C639A430243CA6020684169A26992
:1033100021F44071114341611E492068884202D165
:10332000FEF732FB01E0FEF71FFB00EBC00101EBF3
:103330000012606864218000B2FBF0F3B3FBF1F38C
:103340006FF018067343B2FBF0F5B2FBF0F605EB35
:103350008305322303EB0515B5FBF1F5B6FBF1F65A
:1033600005F0F00505EB0615B2FBF0F6B2FBF0F048
:10337000B0FBF1F06FF01802504306EB800003EB56
:103380000010B0FBF1F0216800F00F0028448860C5
:1033900070BD00000038014081628285C285002135
:1033A0004164222180F84210016921B10168CA6894
:1033B00042F48072CA6001684A6942F001024A61BF
:1033C0000068C16841F02001C16000207047000022
:1033D0000148FEF73BBF0000D00600200148FEF781
:1033E00035BF000018070020FEE7490050EAC12061
:1033F00018BF04204A0D18BF40F0010040F2FF72D0
:10340000B2EB515F08BF40F00200012808BF052061
:1034100070470907090E002804DB00F1E02080F85E
:103420000014704700F00F0000F1E02080F8141D38
:10343000704730380A2801D20120704700207047B9
:103440002DE9F041364DB5F9000000F0D7FB6FF0E3
:103450000E06314600F0EAFC042100F0E7FCA5F17D
:103460004004A062B5F9020000F0C8FB314600F04C
:10347000DDFC042100F0DAFCE062B5F9040000F0A4
:10348000BDFB314600F0D2FC042100F0CFFC10352A
:103490002063B5F9000000F0B1FB314600F0C6FC36
:1034A000204F394600F0C2FB6063B5F9020000F01E
:1034B000A5FB314600F0BAFC394600F0B7FBA0632B
:1034C000B5F9040000F09AFB314600F0AFFC394634
:1034D00000F0ACFB083DE063B5F9000000F08EFBA6
:1034E000314600F0A3FC104F394600F09FFBE0612D
:1034F000B5F9020000F082FB314600F097FC394636
:1035000000F094FB2062B5F9040000F077FB31462F
:1035100000F08CFC394600F089FB6062BDE8F08168
:10352000400000200000FA4400003443FEF7F0F8A9
:10353000FFF7F7FCFFF71CF9FFF778FAFFF794F9AC
:10354000FFF732FAFFF7FEF9FFF78CFAFFF71CFBE3
:10355000012265496548FFF74FF863490122491C7C
:103560006348FFF749F8634C012251032046FEF7F8
:10357000BCF80022A1142046FEF7B7F801229103FF
:103580002046FEF7B2F800224FF400412046FEF735
:10359000ACF800215848FEF709FE0C215648FEF70A
:1035A00005FE5548002501680D6400684563082143
:1035B0005248FEF7FBFD0C215048FEF7F7FD0022B4
:1035C00008214E48FFF791FC00220C214B48FFF7E1
:1035D0008CFC454C4A4EE41E0127677100224021B5
:1035E0003046FEF782F86FF0C7094FF4FA78607939
:1035F00010B300210846FFF753FA002208213F4884
:10360000FFF773FCFFF78CFA002110233DA2084658
:10361000FFF7BAFB10233DA202210020FFF7B4FB05
:1036200010233DA204210020FFF7AEFBFFF732FB81
:103630004046FDF74BFFDAE7C8210846FFF730FAAE
:10364000424608212D48FFF750FCFFF7F9FE0423FE
:10365000304632460821FFF7F9FB00F0B3FA20614B
:10366000401E132811D200210846FFF719FA4046E0
:10367000FDF72CFFE068002830D04946C820FFF74E
:103680000FFAE5604046FDF721FFFFF749FA25A153
:1036900028482269FCF7A8FD00211023254A084686
:1036A000FFF772FB606A00F05BFA02460B4622A14C
:1036B0002048FCF799FD10231E4A02210020FFF745
:1036C00063FB20A11B48FCF78FFD1023194A04213E
:1036D0000020FFF759FBFFF7DDFA88E7C8214846CD
:1036E000FFF7DEF9E760CDE703000020D0060020F9
:1036F00018070020000C0140F80500208806002073
:103700000008014053746F707065640050726573F7
:103710007320535441525400746F20636F6E746968
:103720006E75650044697374616E63653A25646300
:103730006D000000E2050020416E676C653A252EA1
:103740003166000052756E6E696E672E2E2E000077
:1037500010B500290AD00878002807D00548784419
:10376000FDF7F8F9002801D0002010BD0248784488
:1037700010BD0000EA1F0000E21F000021F000421F
:10378000A2F16052B2F5801F01F0004328BFD2F1D0
:103790007F6C0BD95FEA001C43EAC20242EB507017
:1037A00018BF704728BF20F001007047B2F5801F96
:1037B000BCBF184670474FEA410C1CF5001F02D2EF
:1037C000084600F0FABA70B500F075F900000089FB
:1037D000FFF7F6BF4FF00040A0F5800070470000F3
:1037E0002DE9C04130B4DFF8A0C23CEA111418BF83
:1037F0003CEA131400F0EC8081EA03051CEA111482
:1038000044EAD57418BF1CEA131500F0C780A4EB76
:1038100005044FF0004545EAC12145EAC32341EACA
:10382000505143EA525304F17F74994204F5003435
:103830004FEAC0204FEAC22208BF904200F09C80AD
:103840004FEA13650FF24016765D4FEA134506FB0B
:1038500005F7C7F1807706FB07F74FEAD737A7FBD5
:1038600003687642C8F58038A7FB06CE38BFA8F1BA
:10387000010807FB08E64FF0000EA6FB028CE6FBF2
:1038800003CEDCF1000CCEF1004E38BFAEF1010EDC
:10389000A6FB0C584FF000074FF00005E6FB0E8723
:1038A000A1FB08C6A0FB07CE16EB0E0645F10005EE
:1038B000E1FB076515F1E04E7EBFA4F580345FEAB9
:1038C00046066D4116F1800745F100054FEA1727BE
:1038D0004FEA066647EA0567A6F1DE46B6F1805F65
:1038E0004FEA15251FD9384624F0010C05EBC471A9
:1038F000BCF1FE6F01EB0C1102D8F0BCBDE80081F9
:1039000024425CBF01F5801E9EEAC47F02D4F0BC55
:10391000BDE80081244238D4F0BCA1F1C041BDE82B
:10392000004100F016B94FEAD22242EA43524FEA70
:10393000D323A7FB02864FEAD02040EA415007FB81
:1039400003661EEA0E0F4FEAD12105FB026658BF3F
:10395000A6EB0056B6EB00564FEA520E4EEAC37E77
:1039600018EB0E0E56EB530EBDD518EB02085E4158
:103970007F1C55F10005B6E74FF480154FF00007A6
:103980004FF000064FF00008ADE7F0BC4FF000002C
:1039900001F1C04101F00041BDE8008111EA0C1FB6
:1039A0000CEA131500D00CE013EA0C1F00F0258080
:1039B0004FF00000F0BC81EA030101F00041BDE8D6
:1039C0000081F0BCBDE8004181EA030100F0C1B80C
:1039D000F0BCBDE8004170B500F06DF8097EFC3E1A
:1039E00000F007B881EA03014FF0000001F0004148
:1039F000704781EA030100F0ACB8F0BCBDE80041BB
:103A00004FF0000021497047FFFDFBF9F7F5F4F294
:103A1000F0EEEDEBE9E8E6E4E3E1E0DEDDDBDAD869
:103A2000D7D5D4D3D1D0CFCDCCCBCAC8C7C6C5C4C7
:103A3000C2C1C0BFBEBDBCBBBAB9B8B7B6B5B4B3DE
:103A4000B2B1B0AFAEADACABAAA9A8A8A7A6A5A4C9
:103A5000A3A3A2A1A09F9F9E9D9C9C9B9A9999988D
:103A60009797969595949393929191908F8F8E8E30
:103A70008D8C8C8B8B8A89898888878786858584BD
:103A800084838382828181800000FF070000F87FA9
:103A9000B0FA80F310FA03F10AD0C3F11D0303F565
:103AA00080634FEA41504FEA035202EBD121704745
:103AB0004FF0000070470EF1020E2EF0030E5EF87C
:103AC000046B364205D4012A43EB030515F5001FAC
:103AD00012D8012841EB010C1CF5001F0CD80ED1A7
:103AE0004FEAD17C15F5001F0CEB4C0C0CF1020CCD
:103AF00008BF4CEBD37C04E04FF0080C01E04FEA28
:103B0000D37C0CEB4C0526FA05F606F00706B6F159
:103B1000040C06D20EEB860CBDE870404CF0010C94
:103B20006047DFE80CF0090B02024FF000414FF054
:103B30000000A1F5002170BD19461046012851EB87
:103B4000010418BFD4F5001484BF002001F0004127
:103B500070BD0808A0F500114FEA31017047000060
:103B600043004FEAD30C4FEA3C0C43401FBF4007D1
:103B70000CF1605113F0FE4F70471CF0006F03D141
:103B800000200CF0004170470CF0004343EA5070F5
:103B900010B540EACC0000F0CAF800BF0000009267
:103BA0004FEA0001FFF7D5BF4FF000414FF0000092
:103BB000A1F5002170470000014800F005B900BFE1
:103BC0000000C07F41000B0ED3F19E0208D950F4D3
:103BD00000034FEA032323FA02F048BF4042704734
:103BE00010B500F0A4F800BF49922480002070476F
:103BF0006FF0004282EA20007047000010F00041A0
:103C000048BF4042B0FA80F310FA03F2C3F19D03BB
:103C10000BD051EAC35101EB1220530638BF704755
:103C200000F1010008BF20F0010070474FF47F0C45
:103C30001CEAD0121EBF1CEAD11392EA0C0F93EAC1
:103C40000C0F00F0478090EA010F48BF42F48072E9
:103C50004FF0004C4CEA00204CEA012102EB030239
:103C6000A0FB0113A2F50002002918BF43F00103D5
:103C70005B0028BF4FEA330342EB22425FEA132C7A
:103C80004CEBC2502EBFBCEB436FB2F57C0F7047BC
:103C90004FEA036CBCF1004F08BF20F00100B2F501
:103CA0007C0F38BF70470BD582F0FF0212F5803FC2
:103CB000C8BF704700F1C040D8BF00F00040704757
:103CC00000F5000C5FEA4C0C48BF7047B0F1C040F3
:103CD00000F073B890EA010F0CEAD11348BF42F428
:103CE0008072624538BF634504D280EA010000F06B
:103CF0000040704710B500F01AF800BF8900013E7F
:103D000000F007B800F009B85FEA410C5FEA1C6CEC
:103D100008D080EA010000F050B85FEA400C5FEA8A
:103D20001C6CF6D14FF00040A0F5800070470EF1FA
:103D3000020E2EF0030E5EF8044B244204D44FEA28
:103D40004102B2F17F4F11D84FEA4003B3F17F4FE8
:103D50000CD80ED14FEAD07CB2F17F4F0CEB4C0C5B
:103D60000CF1020C08BF4CEBD17C04E04FF0080CC6
:103D700001E04FEAD17C0CEB4C0324FA03F404F08D
:103D80000704B4F1040C06D20EEB840CBDE810401D
:103D90004CF0010C6047DFE80CF0070802024FF01E
:103DA0000040A0F5800010BD0846420018BFD2F1C7
:103DB000807288BF00F0004010BDFF2141EAD05062
:103DC000C0057047FCF743BC0CF00F03092B08BF7C
:103DD000082000F051800A2B0BD0082B18BF704729
:103DE00008BF1CF0400F0AD04FF000004FF0000158
:103DF00070471CF0400F18BF4FF0004070471CF098
:103E0000100F08D020F0704300F07F4242EAD30147
:103E10004FEA4370704700F0604021F07F4242EA71
:103E2000000201F07F4040EA727070474FF0FF02DD
:103E300012EAD0521CBF92F0FF038B42C2BFD142A4
:103E400000EBC1507047002A0AD0002B0BD000298C
:103E500000F00040A4BF40F0FE4040F40000704776
:103E600000F00040704743024FF00B0C18BF4CF0BD
:103E7000806C7FF4A1AE70471CF4801F11D01CF43D
:103E8000E02F03D06FEACC31490070474FF040502B
:103E9000EFF3008222F0704242EA000282F30088CF
:103EA00070474FF000007047000000000000000065
:103EB00000000000000000003F4000000000000083
:103EC00000003000400030004000000009000BC03E
:103ED0003D000BC03D00090018C024407FE0224097
:103EE00031800000180024C01B000D80324001808A
:103EF00003801C4027401C800740004010006000E9
:103F000000000000000000000000000000001F8012
:103F1000204040200000402020401F800000000082
:103F2000090006001F8006000900000004000400CC
:103F30003F8004000400000000100060000000004A
:103F4000000000000400040004000400040000005D
:103F5000000000400000000000000000002001C040
:103F600006003800400000001F8020402040204014
:103F70001F800000000010403FC000400000000013
:103F800018C02140224024401840000010802040EA
:103F9000244024401B80000002000D0011003FC09F
:103FA000014000003C802440244024402380000045
:103FB0001F80244024403440038000003000200053
:103FC00027C03800200000001B80244024402440EB
:103FD0001B8000001C0022C0224022401F800000E5
:103FE0000000000008400000000000000000000089
:103FF0000460000000000000000004000A0011003E
:104000002080404009000900090009000900000063
:1040100000004040208011000A0004001800200029
:1040200023402400180000001F8020402740294022
:104030001F400000004007C039000F0001C00040D1
:1040400020403FC0244024401B8000001F802040AF
:10405000204020403080000020403FC020402040D1
:104060001F80000020403FC024402E4030C0000090
:1040700020403FC024402E00300000000F00108080
:10408000204022403380020020403FC00400040052
:104090003FC02040204020403FC020402040000042
:1040A0000060202020203FC02000200020403FC092
:1040B00024400B0030C0204020403FC02040004042
:1040C000004000C03FC03C0003C03C003FC00000B7
:1040D00020403FC00C4023003FC020001F802040F4
:1040E000204020401F80000020403FC0244024008A
:1040F000180000001F802140214020E01FA0000088
:1041000020403FC02440260019C0004018C0244071
:104110002440224031800000300020403FC0204039
:104120003000000020003F80004000403F80200021
:1041300020003E0001C0070038002000380007C002
:104140003C0007C038000000204039C0060039C0DC
:10415000204000002000384007C038402000000008
:10416000304021C02640384020C000000000000040
:104170007FE0402040200000000070000C00038021
:10418000004000000000402040207FE000000000D0
:10419000000020004000200000000000001000107F
:1041A000001000100010001000000000400000008F
:1041B00000000000000002800540054003C00040F0
:1041C00020003FC004400440038000000000038042
:1041D00004400440064000000000038004402440E6
:1041E0003FC0004000000380054005400340000040
:1041F000000004401FC0244024402000000002E0D2
:10420000055005500650042020403FC004400400E3
:1042100003C000400000044027C000400000000030
:1042200000100010041027E00000000020403FC0F4
:104230000140070004C00440204020403FC000402F
:104240000040000007C0040007C0040003C00000D5
:10425000044007C00440040003C000400000038085
:104260000440044003800000041007F004500440A0
:1042700003800000000003800440045007F0001099
:10428000044007C002400400040000000000064093
:104290000540054004C00000000004001F800440E9
:1042A00000400000040007800040044007C00040B8
:1042B0000400070004C0018006000400060001C0DD
:1042C000070001C006000000044006C0010006C04F
:1042D000044000000410071004E001800600040000
:1042E0000000044005C0064004400000000000003B
:1042F00004007BE040200000000000000000FFF010
:1043000000000000000040207BE0040000000000EE
:10431000400080004000200020004000000000001D
:10432000000000000000000000000000000000008D
:1043300000001FCC000C000000000000000008007E
:10434000300060000800300060000000022003FC24
:104350001E20022003FC1E200220000000000E1878
:1043600011043FFF10840C78000000000F0010843F
:104370000F3800C0077818840078000000780F8498
:1043800010C411240E9800E400840008080068009E
:1043900070000000000000000000000000000000AD
:1043A000000007E01818200440020000000040024E
:1043B0002004181807E0000000000000024002403E
:1043C00001800FF001800240024000000080008068
:1043D00000800FF800800080008000000001000DC8
:1043E000000E00000000000000000000000000803F
:1043F0000080008000800080008000800000000CB1
:10440000000C00000000000000000000000000069A
:10441000001800600180060018002000000007F06E
:10442000080810041004080807F000000000080441
:1044300008041FFC000400040000000000000E0C33
:1044400010141024104411840E0C000000000C18ED
:1044500010041104110412880C700000000000E028
:104460000320042408241FFC0024000000001F98DF
:10447000108411041104108810700000000007F06F
:1044800008881104110418880070000000001C0046
:10449000100010FC13001C001000000000000E387B
:1044A00011441084108411440E38000000000700ED
:1044B000088C10441044088807F000000000000039
:1044C0000000030C030C00000000000000000000CE
:1044D0000001010600000000000000000000008054
:1044E00001400220041008081004000002200220ED
:1044F00002200220022002200220000000001004FE
:1045000008080410022001400080000000000E0096
:104510001200100C106C10800F00000003E00C184B
:1045200013E4142417C4082807D000000004003C3A
:1045300003C41C40074000E4001C000410041FFCDE
:104540001104110411040E880070000003E00C181F
:1045500010041004100410081C10000010041FFCAC
:10456000100410041004080807F0000010041FFCD9
:104570001104110417C410040818000010041FFCD3
:104580001104110017C010000800000003E00C180F
:104590001004100410441C780040000010041FFC9C
:1045A00010840080008010841FFC100400001004A0
:1045B00010041FFC100410040000000000030001A0
:1045C000100110011FFE10001000000010041FFC5D
:1045D000110403801464181C1004000010041FFC54
:1045E0001004000400040004000C000010041FFC70
:1045F0001F0000FC1F001FFC1004000010041FFC23
:104600000C04030000E010181FFC100007F008085D
:10461000100410041004080807F0000010041FFC28
:1046200010841080108010800F00000007F0081820
:1046300010241024101C080A07F2000010041FFCAC
:104640001104110011C011300E0C000400000E1CEA
:1046500011041084108410441C380000180010004D
:1046600010041FFC100410001800000010001FF8B8
:1046700010040004000410041FF8100010001E00B5
:1046800011E0001C007013801C0010001FC0103CC3
:1046900000E01F0000E0103C1FC000001004180CD8
:1046A000163401C001C01634180C100410001C0090
:1046B000130400FC13041C00100000000804101C6C
:1046C0001064108413041C04101800000000000083
:1046D00000007FFE40024002400200000000300067
:1046E0000C0003800060001C00030000000040027A
:1046F000400240027FFE00000000000000000000B9
:1047000020004000400040002000000000010001A7
:104710000001000100010001000100010000400053
:104720004000200000000000000000000000009891
:10473000012401440144014400FC000410001FFC5A
:10474000008801040104008800700000000000706F
:1047500000880104010401040088000000000070CA
:1047600000880104010411081FFC0004000000F887
:10477000014401440144014400C800000000010458
:1047800001040FFC1104110411001800000000D6F0
:1047900001290129012901C90106000010041FFC9B
:1047A000008401000100010400FC00040000010479
:1047B000190419FC000400040000000000000003BC
:1047C00000010101190119FE0000000010041FFC86
:1047D0000024004001B4010C01040000000010049A
:1047E00010041FFC0004000400000000010401FC90
:1047F0000104010001FC0104010000FC010401FCB2
:10480000008401000100010400FC0004000000F825
:10481000010401040104010400F80000010101FF8A
:104820000085010401040088007000000000007091
:10483000008801040104010501FF000101040104D5
:1048400001FC00840104010001800000000000CC94
:10485000012401240124012401980000000001002A
:10486000010007F80104010400000000010001F844
:10487000000400040004010801FC000401000180A0
:104880000170000C001001600180010001F0010CBA
:10489000003001C00030010C01F0010000000104F3
:1048A000018C00740170018C010400000101018180
:1048B0000171000E001801600180010000000184F8
:1048C000010C013401440184010C000000000000CF
:1048D0000000000001003EFC400240020000000019
:1048E00000000000FFFF0000000000000000400288
:1048F00040023EFC010000000000000000006000DB
:1049000080008000400040002000200000000000E7
:104910000000000000000000000000000000000097
:104920000000000000000000000000000000000087
:104930000000000000000000000000000000000F68
:1049400080380FFE380F80380000000000000000A3
:104950000000000000000000000001000006000050
:104960000C00003800003100000600000C00003888
:1049700000003000000000000000000061800067BF
:10498000F807F9800061800061800061800061802B
:104990000067F807F9800061800000000000000057
:1049A000000001C0E003E0F00630080418081FFF13
:1049B000FE040E080787F00381E0000000000000FD
:1049C00001F000060C00040408060C7001F9C00098
:1049D0000E00003BE000EC18070808040C18000368
:1049E000E00000000001E00007F003F818041C08D4
:1049F00004170807E1D003C0E00023B0003C080022
:104A0000200800001000000000000001000031003C
:104A1000003200001C000000000000000000000048
:104A20000000000000000000000000000000000086
:104A30000000000000000000000000007F0001FFF7
:104A4000C00780F00C0018100004200002000000D5
:104A50000000002000021000040C00180780F00184
:104A6000FFC0007F00000000000000000000000008
:104A70000000000000000000420000660000660028
:104A8000003C0000180003FFC0001800003C0000BC
:104A900066000066000042000000000008000008F8
:104AA0000000080000080000080001FFC000080026
:104AB00000080000080000080000080000000000D6
:104AC000000100003100003200001C000000000066
:104AD00000000000000000000000000000000000D6
:104AE00000000000080000080000080000080000A6
:104AF0000800000800000800000800000800000886
:104B00000000000000000000000000003800003835
:104B1000000038000000000000000000000000005D
:104B2000000000000000000000000000000600007F
:104B30001C000070000180000E0000380000C00062
:104B40000700001C00003000000000000000000012
:104B50007F8001FFE0038070060018040008040055
:104B60000806001803807001FFE0007F800000004D
:104B70000000000000000100080100080100080317
:104B8000FFF807FFF8000008000008000008000018
:104B90000000000000000001C03802C05804009866
:104BA000040118040218040418061C1803F818015C
:104BB000E0F800000000000000000001C0E003C0B9
:104BC000F004000804080804080806180803F4188C
:104BD00001E7F00001E0000000000000000000001C
:104BE0000300000D000011000061000081080301B6
:104BF0000807FFF80FFFF800010800010800000097
:104C00000000000000E007FCD006080806100806B7
:104C10001008061008061838060FF00607C0000036
:104C200000000000000000003F8001FFE00384302E
:104C300002081804100804100804100807181003CC
:104C40000FF00007C000000000000000000003C0DB
:104C5000000700000600000600F80607F806180026
:104C600006E0000700000600000000000000000150
:104C7000E1E003F7F0063410041808041808040CE7
:104C800008040C0806161803F3F001C1E000000048
:104C900000000000F80003FC30030638040208049A
:104CA00002080402080404100308F001FFC0007F9A
:104CB00000000000000000000000000000000000F4
:104CC00000000000703800703800703800000000EC
:104CD00000000000000000000000000000000000D4
:104CE0000000000000000000301A00301C0000002E
:104CF00000000000000000000000000000000000B4
:104D000000000008000014000022000041000080A4
:104D1000800100400200200400100800080000008C
:104D200000000000210000210000210000210000FF
:104D300021000021000021000021000021000021AD
:104D4000000000000000000000000800080400103F
:104D5000020020010040008080004100002200008D
:104D6000140000080000000000000003C00004C0A0
:104D700000040000080038080F3808083808100040
:104D80000C300007E00003C000000000000000003D
:104D90003F8000FFE0038070020F1006708804C09F
:104DA00088048308047F8802C09003012000FE402D
:104DB0000000080000180001F8003E0801C20007CA
:104DC000020007E20000FE00001FC80001F800001A
:104DD0003800000804000807FFF807FFF804080877
:104DE00004080804080804080806180803F4180151
:104DF000E7F00001E0000000000000003F8001FF3C
:104E0000E003807002001804000804000804000891
:104E10000400100600200780C000000004000807FE
:104E2000FFF807FFF8040008040008040008040065
:104E30001802001003807001FFE0007F8000000076
:104E400004000807FFF807FFF8040808040808042E
:104E50000808040808043E080400080600180100B9
:104E60006000000004000807FFF807FFF8040808C6
:104E7000040800040800040800043E0006000006C0
:104E80000000018000000000000000003F8001FFE2
:104E9000E0038070060018040008040208040208F9
:104EA0000203F00783F0000200000200040008077C
:104EB000FFF807FFF80408080008000008000008D1
:104EC0000000080004080807FFF807FFF8040008BE
:104ED00000000000000004000804000804000807A7
:104EE000FFF807FFF80400080400080400080000A9
:104EF00000000000000000000006000007000001A4
:104F000004000104000104000307FFFE07FFFC0486
:104F1000000004000004000004000807FFF807FF79
:104F2000F8040C08001800003E0004C7800503C800
:104F30000600F80400380400180000080400080700
:104F4000FFF807FFF8040008000008000008000050
:104F500008000008000008000018000060000000C1
:104F600004000807FFF807800807FC00007FC00066
:104F700003F80007C000780007800807FFF807FF64
:104F8000F804000804000807FFF807000803C00041
:104F900000E000003800001E000007000001C0040F
:104FA00000F007FFF8040000000000007F8001FF10
:104FB000E0038070060018040008040008060018CA
:104FC00003003001FFE0007F8000000004000807BC
:104FD000FFF807FFF80404080404000404000404B4
:104FE00000040400060C0003F80001F000000000BB
:104FF000000000007F8001FFE0038070060088044D
:1050000000880400C806003C03003E01FFE6007F64
:105010008400000004000807FFF807FFF8040808F0
:10502000040800040C00040F00040BC00610F00379
:10503000F03801E00800000800000001E0F803F08B
:1050400030063010041808041808040C08040C0872
:105050000206180207F00781E00000000180000648
:10506000000004000004000004000807FFF807FF28
:10507000F80400080400000400000600000180009D
:1050800004000007FFE007FFF0040018000008001C
:10509000000800000800000800000804001007FFD6
:1050A000E004000004000006000007E00007FE0026
:1050B000041FE00001F80000380001E0043E000792
:1050C000C00006000004000004000007E00007FF25
:1050D000C0041FF80007C007F80007FF80043FF86E
:1050E0000007C004F80007000004000000000004EE
:1050F000000806001807C07805F1C8003E00001F30
:10510000800463E80780F806001804000800000027
:1051100004000006000007800007E008047C080087
:105120001FF80007F800180804E008070000060050
:10513000000400000000000100080600380400F828
:105140000403E8040F08047C0805F00807C00807FA
:1051500000180400600000000000000000000000D3
:10516000000000000000003FFFFE200002200002BF
:1051700020000220000220000200000000000000C9
:10518000000008000007000000C000003800000612
:10519000000001C000003000000E0000010000000F
:1051A0000000000000002000022000022000022079
:1051B00000022000023FFFFE00000000000000008F
:1051C00000000000000000000000000000080000D7
:1051D0001000003000002000003000001000000827
:1051E00000000000000000000000010000010000BD
:1051F00001000001000001000001000001000001A9
:10520000000001000001000001000001000000009A
:10521000000000000020000020000010000010002E
:10522000000000000000000000000000000000007E
:105230000000000000F00019F8001B180022080010
:105240002608002408002410003FF8001FF8000082
:105250000800001800000004000007FFF80FFFF02E
:10526000001818001008002008002008003018005E
:105270001FF0000FC00000000000000007C0001F6A
:10528000F0001830002008002008002008003C082A
:10529000001C100000600000000000000000000082
:1052A00007C0001FF0003818002008002008002068
:1052B0000804101007FFF80FFFF0000010000000B6
:1052C0000000000000000007C0001FF000123000C6
:1052D0002218002208002208003208001E10000ECA
:1052E000200000000000000020000020080020082E
:1052F00001FFF803FFF8062008042008042008072F
:10530000200003000000000000000000000E000E5E
:105310006E001FF30031B10020B10020B1003191C7
:10532000001F13002E1E00200E003000000000049D
:10533000000807FFF80FFFF8001008002000002009
:1053400000002008003FF8001FF8000008000000DF
:1053500000000000000000200800200800200806CF
:105360003FF8063FF80000080000080000080000B1
:105370000000000000000000000000000300000327
:10538000002001002001002003063FFE063FFC0034
:10539000000000000000000000000004000807FFFB
:1053A000F80FFFF8000188000300002FC00038F854
:1053B0000020380020080000080000000000000065
:1053C000000004000804000804000807FFF80FFFAD
:1053D000F8000008000008000008000000000000BD
:1053E000002008003FF8003FF800100800200000EF
:1053F0003FF8003FF8001008002000003FF8003F91
:10540000F8000008000000002008003FF8003FF806
:10541000001008001000002000002008003FF800E5
:105420001FF80000080000000000000007C0000F87
:10543000F000183000300800200800200800300874
:10544000001830000FF00007C0000000000000004E
:105450002001003FFF003FFF001011002009002045
:1054600008002008003038001FF0000FC0000000C6
:105470000000000007C0001FF000381800200800DE
:105480002008002009001011001FFF003FFF00004E
:1054900001000000002008002008002008003FF85C
:1054A000003FF80008080010080020080020000055
:1054B0003000003000000000000000000000000C80
:1054C00078001E18003308002308002108002188F6
:1054D0000021980030F0003860000000000000005B
:1054E000200000200000200000FFF003FFF8002053
:1054F0000800200800200800003000000000000024
:10550000000000002000003FF0007FF800001800BD
:105510000008000008002010003FF8007FF00000A5
:1055200010000000000000002000003000003C00DF
:10553000003F800023F0000078000070002380000E
:105540003C00003000002000002000003C00003F34
:10555000E00023F80000E0002700003E00003FE0EC
:105560000021F80001E0003E0000200000000000E3
:105570002008002008003838003E6800278000031B
:10558000C8002CF80038380020180020080000005F
:10559000000000002000003003003C01003F8300B9
:1055A00023EC000070002380003C0000200000205D
:1055B0000000000000000000000000380800203853
:1055C0000020F80023E8002F88003E08003808007B
:1055D0002018000070000000000000000000000023
:1055E000000000000000000008000014001FF7FC8D
:1055F0003000062000020000000000000000000053
:105600000000000000000000000000000000FFFF9C
:10561000FF0000000000000000000000000000008B
:105620000000000000002000023000061FF7FC0010
:10563000140000080000000000000000000000004E
:1056400000000000000000180000600000400000A2
:1056500040000020000010000008000004000004CA
:1056600000000C0000100000010202030405060700
:1056700008090A0B0C0D0E0F1010000000000000AE
:1056800000000102030406070809000000000102EF
:105690000304000002400000000000A00000000021
:1056A00005400000000000C8000000000C400000A1
:1056B0000000409C00000000194000000020BCBE1B
:1056C0000000000034400000BFC91B8E0000000431
:1056D000B5400000504BCFD06607E2CF010000007C
:1056E0006C4100003E8251AADFEEA73401000000A9
:1056F000D9420000DCB5A0E23A301F97FFFFFFFF60
:10570000B4450000FD25A0C8E9A3C14FFFFFFFFF7E
:10571000FF3F00000000008000000000FF3F00008D
:105720000000008000000000645700080000002016
:105730006800000028010008CC570008680000201D
:10574000580D0000440100081C0000004300000048
:10575000F8FFFFFF0C0000000E0000000F0000002B
:105760002E0000000100000000000000000000000A
:105770000000000000000000000000000000000029
:105780000000000000000000000000000000000019
:105790000000000000000000000000000000000009
:1057A00000000000000000000000000000000000F9
:1057B00000000000000000000000000001000000E8
:0C57C000100000000000000000127A0041
:04000005080000ED02
:00000001FF
